:100000000C9434000C9451000C9451000C94510049
:100010000C9451000C9451000C9451000C9451001C
:100020000C9451000C9451000C9451000C9451000C
:100030000C9451000C9451000C9451000C945100FC
:100040000C9428010C9451000C9451000C94510014
:100050000C9451000C9451000C9451000C945100DC
:100060000C9451000C94510011241FBECFEFD4E02A
:10007000DEBFCDBF11E0A0E0B1E0E4EFF5E002C0EB
:1000800005900D92A43BB107D9F721E0A4EBB1E0B4
:1000900001C01D92A03CB207E1F70E94E4020C945B
:1000A000F8020C94000087E091E00E94D70260E023
:1000B00082E00E943902499907C060E081E00E9415
:1000C00039028BE790E012C04C9914C0789460E03C
:1000D00081E00E9439022FEF83ED90E321508040B0
:1000E0009040E1F700C000008AEF90E09093BF01DC
:1000F0008093BE01089585E191E00E94D70260E0FF
:1001000082E00E9439022FEF89E698E12150804079
:100110009040E1F700C0000049992AC02091BC013D
:100120003091BD018091BA019091BB0160E0281728
:100130003907B9F481E00E94390282E291E00E941D
:10014000D7022FEF83ED90E3215080409040E1F7FC
:1001500000C0000060E081E00E9439028FEC90E076
:1001600019C081E00E94390280E391E00C94D7022B
:100170004C9914C0789460E081E00E9439022FEF1E
:1001800083ED90E3215080409040E1F700C00000F3
:100190008AEF90E09093BF018093BE01089580E4C0
:1001A00091E00E94D70260E082E00E943902499902
:1001B0000AC060E081E00E94390281E0809306017C
:1001C00081EC91E012C04C9914C0789460E081E019
:1001D0000E9439022FEF83ED90E321508040904040
:1001E000E1F700C000008AEF90E09093BF01809398
:1001F000BE0108954C9916C0F8942FEF89E698E156
:10020000215080409040E1F700C000008BE891E071
:100210009093BF018093BE0181E08093060160E06E
:100220000C9439020895789460E081E00E943902CC
:100230002FEF83ED90E3215080409040E1F700C024
:1002400000008AEF90E09093BF018093BE01089573
:100250001F920F920FB60F9211248F934C9B03C0E5
:100260008BB180588BB98F910F900FBE0F901F905C
:10027000189550985198529853985498589A599A5A
:100280005A9A5B9A5C9A84B18F6184B9579A5F9A43
:1002900082ED94E09093B9018093B8011092B70178
:1002A00023E62093B6011092B5011092B40121E02B
:1002B000209306019093BD018093BC019093BB01F4
:1002C0008093BA0185B5846085BDEEE6F0E080815B
:1002D0008160808316BCF89408959093C500809344
:1002E000C40088E18093C1008EE08093C20008952D
:1002F0009091C00095FFFCCF8093C6000895CF93E6
:10030000DF93EC018991882319F00E947801FACFDC
:10031000DF91CF9108958DE491E00E94D70260E0D3
:1003200082E00E94390280910601813031F480918F
:100330000401909105010E947F01109206014899E5
:100340000AC083E590E09093BF018093BE0160E016
:1003500081E00C9439024B990AC060E081E00E9470
:10036000390281E08093060180EF91E005C04C9B4B
:100370000C9413018BE891E09093BF018093BE0130
:10038000089588E591E00E94D70260E082E00E9433
:1003900039024A990AC083E590E09093BF018093A7
:1003A000BE0160E081E00C9439024C9B0C94130177
:1003B00081E08093B40181EC91E09093BF01809340
:1003C000BE0180910601813031F48091020190914B
:1003D00003010E947F01109206011092B40108955A
:1003E00060E081E00E94390280E691E00E94D7023D
:1003F00060E082E00E94390280910601811106C00E
:1004000080910001909101010E947F0181E0809321
:1004100006012FEF89E698E1215080409040E1F7F6
:1004200000C0000060E081E00E9439028BE891E0AA
:100430009093BF018093BE014C9B0C9413010895CF
:100440008CE691E00E94D70260E082E00E943902CF
:1004500082ED94E09093B9018093B8011092B701B6
:1004600083E68093B6011092B50160E081E00C94C0
:100470003902611102C02D9801C02D9A95B1907F6B
:10048000282F22952F70922B95B995E09A95F1F728
:1004900000002C9A95E09A95F1F700002C9890EFC7
:1004A0009A95F1F795B1907F282F2F70922B95B9DF
:1004B00095E09A95F1F700002C9A95E09A95F1F75E
:1004C00000002C9890EF9A95F1F7611108C08430E4
:1004D00030F48FE39FE10197F1F700C00000089529
:1004E0002D982C982FEF89EF90E02150804090407C
:1004F000E1F700C0000085B1807F836085B925E009
:100500002A95F1F700002C9A85E08A95F1F7000012
:100510002C9890EF9A95F1F78FE19EE40197F1F70F
:1005200000C0000095E09A95F1F700002C9A25E0B4
:100530002A95F1F700002C9880EF8A95F1F78FE16A
:1005400093E00197F1F700C0000095E09A95F1F76C
:1005500000002C9A25E02A95F1F700002C9880EFF6
:100560008A95F1F785B1807F826085B995E09A958B
:10057000F1F700002C9A25E02A95F1F700002C985D
:1005800080EF8A95F1F760E088E20E94390260E02E
:1005900088E00E94390260E081E00E94390260E058
:1005A0008FE00E94390260E080E80C943902CF931A
:1005B000DF93EC018991882321F061E00E943902E8
:1005C000F9CFDF91CF9108950E94390187E690E03D
:1005D0000E946D018BE891E09093BF018093BE0172
:1005E0000E947002E091BE01F091BF010995FACF1F
:0405F000F894FFCFAD
:1005F40078018C01A00101496E7365726972205300
:10060400656E686100436F6D7061726153656E68F9
:10061400610053454E484120434F525245544100D6
:1006240053454E484120494E434F52524554410090
:1006340054656D706F72697A61646F72004465739A
:100644006174697661646F004174697661646F00F6
:1006540050726F6772616D6163616F00526563759B
:100664007065726163616F005553455220363636AA
:10067400363636203232323253530A0055534552FD
:1006840020323232323232203130313053530A0088
:1006940055534552203235303732322032313439D5
:0406A40053530A00A2
:00000001FF
